:020000040000FA
:040000000EEF00F00F
:020004000000FA
:040008002BEF00F0EA
:0800180032EF00F0000E9A6EB9
:10002000840ED56EF28EF28A000E016E000E976E6F
:10003000FF0E926EFE0EC16EFF0EC26E000EC26EFD
:10004000080EC16EC2809E9C9D8C9F9CF28CC282C9
:10005000D08E29EF00F03AEC00F001C088FFF29456
:10006000F28E12009E9CF28CC4CF01F001C088FF7A
:10007000C2821200FF0E026EFF0E036E0B0E046EA4
:10008000022E40EF00F0032E40EF00F0042E40EF70
:0400900000F012006A
:020000040001F9
:01FFF800AF59
:01FFFA00C442
:00000001FF
